:108000008200828D820082BD820082BD820082BD9C
:10801000820082BD820082BD820082BD820082BD5C
:10802000820082BD820082BD820082BD820082BD4C
:10803000820082BD820082BD820082BD820082BD3C
:10804000820082BD820082BD820082BD820082BD2C
:10805000820082BD820082BD820082BD820082BD1C
:10806000820082BD820082BD820082BD820082BD0C
:10807000820082BD820082BD820082BD820082BDFC
:10808000BF0090F6262F1C00049093FEBF025C9068
:10809000FFBE02A300512535BE005CFEBF02BE003C
:1080A0001C0003F65F5CCD82A09F92C80292C702BB
:1080B0005F90FF20184A26155CFE9093BE001C00BE
:1080C00003F65F5CCD82A09F4390F490F7BE001C46
:1080D0000003F65F5CCD82A09FBE005CFEF5270624
:1080E000A60192C70081923F0081BF021C0004F6E6
:1080F000B704BE025C5CFEBF0090BE02905CF65FFF
:1081000097B604CD82A89FA40192C1022719907C42
:1081100090F6A10B251092C6005F97B604CD82A8F9
:108120009FA40192C70281907F81AE0024CD80EA96
:10813000AE0029CD80EAAE002ECD80EAAE0033CD70
:1081400080EAC6000F5F5CCD82A041B700CE000D73
:10815000C60033260A3501000CF6BA00F7200A33B0
:1081600000B600F4F7725F000CC600155F5CCD82AC
:10817000A041B700CE0013C6002E260A350100121A
:10818000F6BA00F7200A3300B600F4F7725F001267
:1081900090AE0024AE0018CD808090AE0029AE00D5
:1081A0001ECC808072145012721E500D721C500D25
:1081B000721650127218500C7218500D721A500C20
:1081C000721A500D7216500C7216500D7216500223
:1081D00072165003C650C6AA18C750C6C650C6A4C9
:1081E000F8AA04C750C6725F50C7725F50CA8100B8
:1081F000500A04000000500A05000000500A030065
:108200000000500003000000005010030000500B5D
:108210000700005010020000500B0689FE90938565
:108220005C5C905D271C89FEBF00855C5C89FEBF9D
:1082300002855C5C515A92D60092D7025A2AF751B5
:1082400020D981821B002C81EF000C000088A60839
:108250002000887B02887B02891E061F045F97FE30
:108260001F06858481AE824320065C5C90FE90FDF3
:10827000909390A3824D26F281CD824D5202BF0889
:10828000BE081F01965CA601CD82C920F3AE03FF94
:1082900094CD82C05D2703CD8265CD82B0CC82C3F0
:1082A0004D2704584A26FC814D2704574A26FC8155
:1082B000CD81A4CD812A20FB8985CD8279CC82C64F
:0A82C0005F5C81CC82B89D20FD8137
:040000050000828DE8
:00000001FF
